{
  "_format": "hh-sol-artifact-1",
  "contractName": "BasedSkills",
  "sourceName": "contracts/BasedSkills.sol",
  "abi": [
    {
      "inputs": [],
      "stateMutability": "nonpayable",
      "type": "constructor"
    },
    {
      "inputs": [
        {
          "internalType": "uint256",
          "name": "numerator",
          "type": "uint256"
        },
        {
          "internalType": "uint256",
          "name": "denominator",
          "type": "uint256"
        }
      ],
      "name": "ERC2981InvalidDefaultRoyalty",
      "type": "error"
    },
    {
      "inputs": [
        {
          "internalType": "address",
          "name": "receiver",
          "type": "address"
        }
      ],
      "name": "ERC2981InvalidDefaultRoyaltyReceiver",
      "type": "error"
    },
    {
      "inputs": [
        {
          "internalType": "uint256",
          "name": "tokenId",
          "type": "uint256"
        },
        {
          "internalType": "uint256",
          "name": "numerator",
          "type": "uint256"
        },
        {
          "internalType": "uint256",
          "name": "denominator",
          "type": "uint256"
        }
      ],
      "name": "ERC2981InvalidTokenRoyalty",
      "type": "error"
    },
    {
      "inputs": [
        {
          "internalType": "uint256",
          "name": "tokenId",
          "type": "uint256"
        },
        {
          "internalType": "address",
          "name": "receiver",
          "type": "address"
        }
      ],
      "name": "ERC2981InvalidTokenRoyaltyReceiver",
      "type": "error"
    },
    {
      "inputs": [
        {
          "internalType": "address",
          "name": "sender",
          "type": "address"
        },
        {
          "internalType": "uint256",
          "name": "tokenId",
          "type": "uint256"
        },
        {
          "internalType": "address",
          "name": "owner",
          "type": "address"
        }
      ],
      "name": "ERC721IncorrectOwner",
      "type": "error"
    },
    {
      "inputs": [
        {
          "internalType": "address",
          "name": "operator",
          "type": "address"
        },
        {
          "internalType": "uint256",
          "name": "tokenId",
          "type": "uint256"
        }
      ],
      "name": "ERC721InsufficientApproval",
      "type": "error"
    },
    {
      "inputs": [
        {
          "internalType": "address",
          "name": "approver",
          "type": "address"
        }
      ],
      "name": "ERC721InvalidApprover",
      "type": "error"
    },
    {
      "inputs": [
        {
          "internalType": "address",
          "name": "operator",
          "type": "address"
        }
      ],
      "name": "ERC721InvalidOperator",
      "type": "error"
    },
    {
      "inputs": [
        {
          "internalType": "address",
          "name": "owner",
          "type": "address"
        }
      ],
      "name": "ERC721InvalidOwner",
      "type": "error"
    },
    {
      "inputs": [
        {
          "internalType": "address",
          "name": "receiver",
          "type": "address"
        }
      ],
      "name": "ERC721InvalidReceiver",
      "type": "error"
    },
    {
      "inputs": [
        {
          "internalType": "address",
          "name": "sender",
          "type": "address"
        }
      ],
      "name": "ERC721InvalidSender",
      "type": "error"
    },
    {
      "inputs": [
        {
          "internalType": "uint256",
          "name": "tokenId",
          "type": "uint256"
        }
      ],
      "name": "ERC721NonexistentToken",
      "type": "error"
    },
    {
      "inputs": [
        {
          "internalType": "address",
          "name": "owner",
          "type": "address"
        }
      ],
      "name": "OwnableInvalidOwner",
      "type": "error"
    },
    {
      "inputs": [
        {
          "internalType": "address",
          "name": "account",
          "type": "address"
        }
      ],
      "name": "OwnableUnauthorizedAccount",
      "type": "error"
    },
    {
      "inputs": [],
      "name": "ReentrancyGuardReentrantCall",
      "type": "error"
    },
    {
      "anonymous": false,
      "inputs": [
        {
          "indexed": true,
          "internalType": "address",
          "name": "owner",
          "type": "address"
        },
        {
          "indexed": true,
          "internalType": "address",
          "name": "approved",
          "type": "address"
        },
        {
          "indexed": true,
          "internalType": "uint256",
          "name": "tokenId",
          "type": "uint256"
        }
      ],
      "name": "Approval",
      "type": "event"
    },
    {
      "anonymous": false,
      "inputs": [
        {
          "indexed": true,
          "internalType": "address",
          "name": "owner",
          "type": "address"
        },
        {
          "indexed": true,
          "internalType": "address",
          "name": "operator",
          "type": "address"
        },
        {
          "indexed": false,
          "internalType": "bool",
          "name": "approved",
          "type": "bool"
        }
      ],
      "name": "ApprovalForAll",
      "type": "event"
    },
    {
      "anonymous": false,
      "inputs": [
        {
          "indexed": false,
          "internalType": "uint256",
          "name": "_fromTokenId",
          "type": "uint256"
        },
        {
          "indexed": false,
          "internalType": "uint256",
          "name": "_toTokenId",
          "type": "uint256"
        }
      ],
      "name": "BatchMetadataUpdate",
      "type": "event"
    },
    {
      "anonymous": false,
      "inputs": [
        {
          "indexed": false,
          "internalType": "uint256",
          "name": "_tokenId",
          "type": "uint256"
        }
      ],
      "name": "MetadataUpdate",
      "type": "event"
    },
    {
      "anonymous": false,
      "inputs": [
        {
          "indexed": true,
          "internalType": "address",
          "name": "previousOwner",
          "type": "address"
        },
        {
          "indexed": true,
          "internalType": "address",
          "name": "newOwner",
          "type": "address"
        }
      ],
      "name": "OwnershipTransferred",
      "type": "event"
    },
    {
      "anonymous": false,
      "inputs": [
        {
          "indexed": true,
          "internalType": "uint256",
          "name": "tokenId",
          "type": "uint256"
        },
        {
          "indexed": true,
          "internalType": "address",
          "name": "creator",
          "type": "address"
        },
        {
          "indexed": false,
          "internalType": "string",
          "name": "contentHash",
          "type": "string"
        },
        {
          "indexed": false,
          "internalType": "uint256",
          "name": "price",
          "type": "uint256"
        }
      ],
      "name": "SkillCreated",
      "type": "event"
    },
    {
      "anonymous": false,
      "inputs": [
        {
          "indexed": true,
          "internalType": "uint256",
          "name": "tokenId",
          "type": "uint256"
        },
        {
          "indexed": false,
          "internalType": "bool",
          "name": "isListed",
          "type": "bool"
        }
      ],
      "name": "SkillListingUpdated",
      "type": "event"
    },
    {
      "anonymous": false,
      "inputs": [
        {
          "indexed": true,
          "internalType": "uint256",
          "name": "tokenId",
          "type": "uint256"
        },
        {
          "indexed": false,
          "internalType": "uint256",
          "name": "oldPrice",
          "type": "uint256"
        },
        {
          "indexed": false,
          "internalType": "uint256",
          "name": "newPrice",
          "type": "uint256"
        }
      ],
      "name": "SkillPriceUpdated",
      "type": "event"
    },
    {
      "anonymous": false,
      "inputs": [
        {
          "indexed": true,
          "internalType": "uint256",
          "name": "tokenId",
          "type": "uint256"
        },
        {
          "indexed": true,
          "internalType": "address",
          "name": "buyer",
          "type": "address"
        },
        {
          "indexed": true,
          "internalType": "address",
          "name": "seller",
          "type": "address"
        },
        {
          "indexed": false,
          "internalType": "uint256",
          "name": "price",
          "type": "uint256"
        }
      ],
      "name": "SkillPurchased",
      "type": "event"
    },
    {
      "anonymous": false,
      "inputs": [
        {
          "indexed": true,
          "internalType": "address",
          "name": "from",
          "type": "address"
        },
        {
          "indexed": true,
          "internalType": "address",
          "name": "to",
          "type": "address"
        },
        {
          "indexed": true,
          "internalType": "uint256",
          "name": "tokenId",
          "type": "uint256"
        }
      ],
      "name": "Transfer",
      "type": "event"
    },
    {
      "inputs": [
        {
          "internalType": "address",
          "name": "to",
          "type": "address"
        },
        {
          "internalType": "uint256",
          "name": "tokenId",
          "type": "uint256"
        }
      ],
      "name": "approve",
      "outputs": [],
      "stateMutability": "nonpayable",
      "type": "function"
    },
    {
      "inputs": [
        {
          "internalType": "address",
          "name": "owner",
          "type": "address"
        }
      ],
      "name": "balanceOf",
      "outputs": [
        {
          "internalType": "uint256",
          "name": "",
          "type": "uint256"
        }
      ],
      "stateMutability": "view",
      "type": "function"
    },
    {
      "inputs": [
        {
          "internalType": "string",
          "name": "contentHash",
          "type": "string"
        },
        {
          "internalType": "string",
          "name": "category",
          "type": "string"
        },
        {
          "internalType": "uint256",
          "name": "price",
          "type": "uint256"
        },
        {
          "internalType": "uint96",
          "name": "royaltyBps",
          "type": "uint96"
        },
        {
          "internalType": "string",
          "name": "tokenURI_",
          "type": "string"
        }
      ],
      "name": "createSkill",
      "outputs": [
        {
          "internalType": "uint256",
          "name": "",
          "type": "uint256"
        }
      ],
      "stateMutability": "nonpayable",
      "type": "function"
    },
    {
      "inputs": [
        {
          "internalType": "address",
          "name": "",
          "type": "address"
        },
        {
          "internalType": "uint256",
          "name": "",
          "type": "uint256"
        }
      ],
      "name": "creatorSkills",
      "outputs": [
        {
          "internalType": "uint256",
          "name": "",
          "type": "uint256"
        }
      ],
      "stateMutability": "view",
      "type": "function"
    },
    {
      "inputs": [
        {
          "internalType": "uint256",
          "name": "tokenId",
          "type": "uint256"
        }
      ],
      "name": "getApproved",
      "outputs": [
        {
          "internalType": "address",
          "name": "",
          "type": "address"
        }
      ],
      "stateMutability": "view",
      "type": "function"
    },
    {
      "inputs": [
        {
          "internalType": "uint256",
          "name": "tokenId",
          "type": "uint256"
        }
      ],
      "name": "getSkill",
      "outputs": [
        {
          "components": [
            {
              "internalType": "address",
              "name": "creator",
              "type": "address"
            },
            {
              "internalType": "uint256",
              "name": "price",
              "type": "uint256"
            },
            {
              "internalType": "string",
              "name": "contentHash",
              "type": "string"
            },
            {
              "internalType": "string",
              "name": "category",
              "type": "string"
            },
            {
              "internalType": "bool",
              "name": "isListed",
              "type": "bool"
            },
            {
              "internalType": "uint256",
              "name": "totalSales",
              "type": "uint256"
            }
          ],
          "internalType": "struct BasedSkills.Skill",
          "name": "",
          "type": "tuple"
        }
      ],
      "stateMutability": "view",
      "type": "function"
    },
    {
      "inputs": [
        {
          "internalType": "address",
          "name": "creator",
          "type": "address"
        }
      ],
      "name": "getSkillsByCreator",
      "outputs": [
        {
          "internalType": "uint256[]",
          "name": "",
          "type": "uint256[]"
        }
      ],
      "stateMutability": "view",
      "type": "function"
    },
    {
      "inputs": [
        {
          "internalType": "address",
          "name": "owner",
          "type": "address"
        },
        {
          "internalType": "address",
          "name": "operator",
          "type": "address"
        }
      ],
      "name": "isApprovedForAll",
      "outputs": [
        {
          "internalType": "bool",
          "name": "",
          "type": "bool"
        }
      ],
      "stateMutability": "view",
      "type": "function"
    },
    {
      "inputs": [],
      "name": "name",
      "outputs": [
        {
          "internalType": "string",
          "name": "",
          "type": "string"
        }
      ],
      "stateMutability": "view",
      "type": "function"
    },
    {
      "inputs": [],
      "name": "owner",
      "outputs": [
        {
          "internalType": "address",
          "name": "",
          "type": "address"
        }
      ],
      "stateMutability": "view",
      "type": "function"
    },
    {
      "inputs": [
        {
          "internalType": "uint256",
          "name": "tokenId",
          "type": "uint256"
        }
      ],
      "name": "ownerOf",
      "outputs": [
        {
          "internalType": "address",
          "name": "",
          "type": "address"
        }
      ],
      "stateMutability": "view",
      "type": "function"
    },
    {
      "inputs": [],
      "name": "platformFeeBps",
      "outputs": [
        {
          "internalType": "uint256",
          "name": "",
          "type": "uint256"
        }
      ],
      "stateMutability": "view",
      "type": "function"
    },
    {
      "inputs": [
        {
          "internalType": "uint256",
          "name": "tokenId",
          "type": "uint256"
        }
      ],
      "name": "purchaseSkill",
      "outputs": [],
      "stateMutability": "payable",
      "type": "function"
    },
    {
      "inputs": [],
      "name": "renounceOwnership",
      "outputs": [],
      "stateMutability": "nonpayable",
      "type": "function"
    },
    {
      "inputs": [
        {
          "internalType": "uint256",
          "name": "tokenId",
          "type": "uint256"
        },
        {
          "internalType": "uint256",
          "name": "salePrice",
          "type": "uint256"
        }
      ],
      "name": "royaltyInfo",
      "outputs": [
        {
          "internalType": "address",
          "name": "receiver",
          "type": "address"
        },
        {
          "internalType": "uint256",
          "name": "amount",
          "type": "uint256"
        }
      ],
      "stateMutability": "view",
      "type": "function"
    },
    {
      "inputs": [
        {
          "internalType": "address",
          "name": "from",
          "type": "address"
        },
        {
          "internalType": "address",
          "name": "to",
          "type": "address"
        },
        {
          "internalType": "uint256",
          "name": "tokenId",
          "type": "uint256"
        }
      ],
      "name": "safeTransferFrom",
      "outputs": [],
      "stateMutability": "nonpayable",
      "type": "function"
    },
    {
      "inputs": [
        {
          "internalType": "address",
          "name": "from",
          "type": "address"
        },
        {
          "internalType": "address",
          "name": "to",
          "type": "address"
        },
        {
          "internalType": "uint256",
          "name": "tokenId",
          "type": "uint256"
        },
        {
          "internalType": "bytes",
          "name": "data",
          "type": "bytes"
        }
      ],
      "name": "safeTransferFrom",
      "outputs": [],
      "stateMutability": "nonpayable",
      "type": "function"
    },
    {
      "inputs": [
        {
          "internalType": "address",
          "name": "operator",
          "type": "address"
        },
        {
          "internalType": "bool",
          "name": "approved",
          "type": "bool"
        }
      ],
      "name": "setApprovalForAll",
      "outputs": [],
      "stateMutability": "nonpayable",
      "type": "function"
    },
    {
      "inputs": [
        {
          "internalType": "uint256",
          "name": "newFeeBps",
          "type": "uint256"
        }
      ],
      "name": "setPlatformFee",
      "outputs": [],
      "stateMutability": "nonpayable",
      "type": "function"
    },
    {
      "inputs": [
        {
          "internalType": "uint256",
          "name": "tokenId",
          "type": "uint256"
        },
        {
          "internalType": "bool",
          "name": "isListed",
          "type": "bool"
        }
      ],
      "name": "setSkillListing",
      "outputs": [],
      "stateMutability": "nonpayable",
      "type": "function"
    },
    {
      "inputs": [
        {
          "internalType": "uint256",
          "name": "tokenId",
          "type": "uint256"
        },
        {
          "internalType": "uint256",
          "name": "newPrice",
          "type": "uint256"
        }
      ],
      "name": "setSkillPrice",
      "outputs": [],
      "stateMutability": "nonpayable",
      "type": "function"
    },
    {
      "inputs": [
        {
          "internalType": "uint256",
          "name": "",
          "type": "uint256"
        }
      ],
      "name": "skills",
      "outputs": [
        {
          "internalType": "address",
          "name": "creator",
          "type": "address"
        },
        {
          "internalType": "uint256",
          "name": "price",
          "type": "uint256"
        },
        {
          "internalType": "string",
          "name": "contentHash",
          "type": "string"
        },
        {
          "internalType": "string",
          "name": "category",
          "type": "string"
        },
        {
          "internalType": "bool",
          "name": "isListed",
          "type": "bool"
        },
        {
          "internalType": "uint256",
          "name": "totalSales",
          "type": "uint256"
        }
      ],
      "stateMutability": "view",
      "type": "function"
    },
    {
      "inputs": [
        {
          "internalType": "bytes4",
          "name": "interfaceId",
          "type": "bytes4"
        }
      ],
      "name": "supportsInterface",
      "outputs": [
        {
          "internalType": "bool",
          "name": "",
          "type": "bool"
        }
      ],
      "stateMutability": "view",
      "type": "function"
    },
    {
      "inputs": [],
      "name": "symbol",
      "outputs": [
        {
          "internalType": "string",
          "name": "",
          "type": "string"
        }
      ],
      "stateMutability": "view",
      "type": "function"
    },
    {
      "inputs": [
        {
          "internalType": "uint256",
          "name": "tokenId",
          "type": "uint256"
        }
      ],
      "name": "tokenURI",
      "outputs": [
        {
          "internalType": "string",
          "name": "",
          "type": "string"
        }
      ],
      "stateMutability": "view",
      "type": "function"
    },
    {
      "inputs": [],
      "name": "totalSupply",
      "outputs": [
        {
          "internalType": "uint256",
          "name": "",
          "type": "uint256"
        }
      ],
      "stateMutability": "view",
      "type": "function"
    },
    {
      "inputs": [
        {
          "internalType": "address",
          "name": "from",
          "type": "address"
        },
        {
          "internalType": "address",
          "name": "to",
          "type": "address"
        },
        {
          "internalType": "uint256",
          "name": "tokenId",
          "type": "uint256"
        }
      ],
      "name": "transferFrom",
      "outputs": [],
      "stateMutability": "nonpayable",
      "type": "function"
    },
    {
      "inputs": [
        {
          "internalType": "address",
          "name": "newOwner",
          "type": "address"
        }
      ],
      "name": "transferOwnership",
      "outputs": [],
      "stateMutability": "nonpayable",
      "type": "function"
    },
    {
      "inputs": [],
      "name": "withdraw",
      "outputs": [],
      "stateMutability": "nonpayable",
      "type": "function"
    }
  ],
  "bytecode": "0x608060405260fa600c553480156200001657600080fd5b50336040518060400160405280600c81526020016b426173656420536b696c6c7360a01b8152506040518060400160405280600581526020016414d2d2531360da1b81525081600290816200006c9190620001bb565b5060036200007b8282620001bb565b5050506001600160a01b038116620000ad57604051631e4fbdf760e01b81526000600482015260240160405180910390fd5b620000b881620000c4565b506001600a5562000287565b600980546001600160a01b038381166001600160a01b0319831681179093556040519116919082907f8be0079c531659141344cd1fd0a4f28419497f9722a3daafe3b4186f6b6457e090600090a35050565b634e487b7160e01b600052604160045260246000fd5b600181811c908216806200014157607f821691505b6020821081036200016257634e487b7160e01b600052602260045260246000fd5b50919050565b601f821115620001b657600081815260208120601f850160051c81016020861015620001915750805b601f850160051c820191505b81811015620001b2578281556001016200019d565b5050505b505050565b81516001600160401b03811115620001d757620001d762000116565b620001ef81620001e884546200012c565b8462000168565b602080601f8311600181146200022757600084156200020e5750858301515b600019600386901b1c1916600185901b178555620001b2565b600085815260208120601f198616915b82811015620002585788860151825594840194600190910190840162000237565b5085821015620002775787850151600019600388901b60f8161c191681555b5050505050600190811b01905550565b6126c780620002976000396000f3fe6080604052600436106101c25760003560e01c8063594f60eb116100f7578063a8d4de7811610095578063cf17cc0111610064578063cf17cc0114610528578063e924229714610548578063e985e9c514610568578063f2fde38b1461058857600080fd5b8063a8d4de781461049b578063b88d4fde146104bb578063bd880fae146104db578063c87b56dd1461050857600080fd5b8063715018a6116100d1578063715018a6146104335780638da5cb5b1461044857806395d89b4114610466578063a22cb4651461047b57600080fd5b8063594f60eb146103e05780636352211e146103f357806370a082311461041357600080fd5b806322dcd13e116101645780633c3896ad1161013e5780633c3896ad146103595780633ccfd60b1461037957806342842e0e1461038e57806350d15fbe146103ae57600080fd5b806322dcd13e146102e457806323b872dd146102fa5780632a55205a1461031a57600080fd5b8063095ea7b3116101a0578063095ea7b31461025657806312e8e2c31461027857806318160ddd146102985780631865c173146102b757600080fd5b806301ffc9a7146101c757806306fdde03146101fc578063081812fc1461021e575b600080fd5b3480156101d357600080fd5b506101e76101e2366004611f29565b6105a8565b60405190151581526020015b60405180910390f35b34801561020857600080fd5b506102116105b9565b6040516101f39190611f96565b34801561022a57600080fd5b5061023e610239366004611fa9565b61064b565b6040516001600160a01b0390911681526020016101f3565b34801561026257600080fd5b50610276610271366004611fde565b610674565b005b34801561028457600080fd5b50610276610293366004611fa9565b610683565b3480156102a457600080fd5b50600b545b6040519081526020016101f3565b3480156102c357600080fd5b506102d76102d2366004612008565b6106d6565b6040516101f39190612023565b3480156102f057600080fd5b506102a9600c5481565b34801561030657600080fd5b50610276610315366004612067565b610742565b34801561032657600080fd5b5061033a6103353660046120a3565b6107cd565b604080516001600160a01b0390931683526020830191909152016101f3565b34801561036557600080fd5b506102766103743660046120d5565b610854565b34801561038557600080fd5b506102766108fa565b34801561039a57600080fd5b506102766103a9366004612067565b6109ad565b3480156103ba57600080fd5b506103ce6103c9366004611fa9565b6109cd565b6040516101f396959493929190612101565b6102766103ee366004611fa9565b610b20565b3480156103ff57600080fd5b5061023e61040e366004611fa9565b610d70565b34801561041f57600080fd5b506102a961042e366004612008565b610d7b565b34801561043f57600080fd5b50610276610dc3565b34801561045457600080fd5b506009546001600160a01b031661023e565b34801561047257600080fd5b50610211610dd7565b34801561048757600080fd5b50610276610496366004612150565b610de6565b3480156104a757600080fd5b506102a96104b6366004611fde565b610df1565b3480156104c757600080fd5b506102766104d6366004612190565b610e22565b3480156104e757600080fd5b506104fb6104f6366004611fa9565b610e3a565b6040516101f3919061226c565b34801561051457600080fd5b50610211610523366004611fa9565b610ffc565b34801561053457600080fd5b506102a9610543366004612326565b611007565b34801561055457600080fd5b506102766105633660046120a3565b611297565b34801561057457600080fd5b506101e76105833660046123ea565b61133c565b34801561059457600080fd5b506102766105a3366004612008565b61136a565b60006105b3826113a5565b92915050565b6060600280546105c890612414565b80601f01602080910402602001604051908101604052809291908181526020018280546105f490612414565b80156106415780601f1061061657610100808354040283529160200191610641565b820191906000526020600020905b81548152906001019060200180831161062457829003601f168201915b5050505050905090565b6000610656826113b0565b506000828152600660205260409020546001600160a01b03166105b3565b61067f8282336113e9565b5050565b61068b6113f6565b6103e88111156106d15760405162461bcd60e51b815260206004820152600c60248201526b08ccaca40e8dede40d0d2ced60a31b60448201526064015b60405180910390fd5b600c55565b6001600160a01b0381166000908152600e602090815260409182902080548351818402810184019094528084526060939283018282801561073657602002820191906000526020600020905b815481526020019060010190808311610722575b50505050509050919050565b6001600160a01b03821661076c57604051633250574960e11b8152600060048201526024016106c8565b6000610779838333611423565b9050836001600160a01b0316816001600160a01b0316146107c7576040516364283d7b60e01b81526001600160a01b03808616600483015260248201849052821660448201526064016106c8565b50505050565b600082815260016020526040812080548291906001600160a01b03811690600160a01b90046001600160601b0316816108215750506000546001600160a01b03811690600160a01b90046001600160601b03165b60006127106108396001600160601b03841689612464565b610843919061247b565b9295509193505050505b9250929050565b3361085e83610d70565b6001600160a01b0316146108a05760405162461bcd60e51b81526020600482015260096024820152682737ba1037bbb732b960b91b60448201526064016106c8565b6000828152600d6020908152604091829020600401805460ff1916841515908117909155915191825283917f4fd68db061aeb13429dae3b8fa5e05085f40db0b0a86204e40b872611861352b910160405180910390a25050565b6109026113f6565b60006109166009546001600160a01b031690565b6001600160a01b03164760405160006040518083038185875af1925050503d8060008114610960576040519150601f19603f3d011682016040523d82523d6000602084013e610965565b606091505b50509050806109aa5760405162461bcd60e51b815260206004820152601160248201527015da5d1a191c985dd85b0819985a5b1959607a1b60448201526064016106c8565b50565b6109c883838360405180602001604052806000815250610e22565b505050565b600d602052600090815260409020805460018201546002830180546001600160a01b039093169391926109ff90612414565b80601f0160208091040260200160405190810160405280929190818152602001828054610a2b90612414565b8015610a785780601f10610a4d57610100808354040283529160200191610a78565b820191906000526020600020905b815481529060010190602001808311610a5b57829003601f168201915b505050505090806003018054610a8d90612414565b80601f0160208091040260200160405190810160405280929190818152602001828054610ab990612414565b8015610b065780601f10610adb57610100808354040283529160200191610b06565b820191906000526020600020905b815481529060010190602001808311610ae957829003601f168201915b505050506004830154600590930154919260ff1691905086565b610b2861151c565b6000818152600d60205260409020600481015460ff16610b7d5760405162461bcd60e51b815260206004820152601060248201526f14dada5b1b081b9bdd081b1a5cdd195960821b60448201526064016106c8565b8060010154341015610bc85760405162461bcd60e51b8152602060048201526014602482015273125b9cdd59999a58da595b9d081c185e5b595b9d60621b60448201526064016106c8565b6000610bd383610d70565b9050336001600160a01b03821603610c245760405162461bcd60e51b815260206004820152601460248201527310d85b9b9bdd08189d5e481bdddb881cdada5b1b60621b60448201526064016106c8565b6000612710600c5434610c379190612464565b610c41919061247b565b90506000610c4f823461249d565b6005850180549192506000610c63836124b0565b909155505060048401805460ff19169055610c7f833387611546565b6000836001600160a01b03168260405160006040518083038185875af1925050503d8060008114610ccc576040519150601f19603f3d011682016040523d82523d6000602084013e610cd1565b606091505b5050905080610d135760405162461bcd60e51b815260206004820152600e60248201526d14185e5b595b9d0819985a5b195960921b60448201526064016106c8565b836001600160a01b0316336001600160a01b0316877f79db7e5db94f1ea2d57db88fdaa815813e7361751bbe89bd62946afdb6f75b7734604051610d5991815260200190565b60405180910390a450505050506109aa6001600a55565b60006105b3826113b0565b60006001600160a01b038216610da7576040516322718ad960e21b8152600060048201526024016106c8565b506001600160a01b031660009081526005602052604090205490565b610dcb6113f6565b610dd560006115f6565b565b6060600380546105c890612414565b61067f338383611648565b600e6020528160005260406000208181548110610e0d57600080fd5b90600052602060002001600091509150505481565b610e2d848484610742565b6107c733858585856116e7565b610e7e6040518060c0016040528060006001600160a01b03168152602001600081526020016060815260200160608152602001600015158152602001600081525090565b6000828152600d6020908152604091829020825160c08101845281546001600160a01b031681526001820154928101929092526002810180549293919291840191610ec890612414565b80601f0160208091040260200160405190810160405280929190818152602001828054610ef490612414565b8015610f415780601f10610f1657610100808354040283529160200191610f41565b820191906000526020600020905b815481529060010190602001808311610f2457829003601f168201915b50505050508152602001600382018054610f5a90612414565b80601f0160208091040260200160405190810160405280929190818152602001828054610f8690612414565b8015610fd35780601f10610fa857610100808354040283529160200191610fd3565b820191906000526020600020905b815481529060010190602001808311610fb657829003601f168201915b5050509183525050600482015460ff161515602082015260059091015460409091015292915050565b60606105b382611812565b60008761104e5760405162461bcd60e51b815260206004820152601560248201527410dbdb9d195b9d081a185cda081c995c5d5a5c9959605a1b60448201526064016106c8565b6103e8846001600160601b0316111561109c5760405162461bcd60e51b815260206004820152601060248201526f0a4def2c2d8e8f240e8dede40d0d2ced60831b60448201526064016106c8565b600b8054600091826110ad836124b0565b9190505590506110bd3382611923565b6110fd8185858080601f01602080910402602001604051908101604052809392919081815260200183838082843760009201919091525061193d92505050565b61110881338761198d565b6040518060c00160405280336001600160a01b031681526020018781526020018b8b8080601f016020809104026020016040519081016040528093929190818152602001838380828437600092019190915250505090825250604080516020601f8c018190048102820181019092528a815291810191908b908b908190840183828082843760009201829052509385525050600160208085018290526040948501849052868452600d815292849020855181546001600160a01b0319166001600160a01b039091161781559285015190830155509082015160028201906111ef908261250f565b5060608201516003820190611204908261250f565b50608082015160048201805460ff191691151591909117905560a090910151600590910155336000818152600e60209081526040808320805460018101825590845291909220018390555182907f9c1445e62d76df685a1c192561426f3d38174ceceb2013ae920f7d885ba29dab90611282908e908e908c906125cf565b60405180910390a39998505050505050505050565b336112a183610d70565b6001600160a01b0316146112e35760405162461bcd60e51b81526020600482015260096024820152682737ba1037bbb732b960b91b60448201526064016106c8565b6000828152600d602090815260409182902060010180549084905582518181529182018490529184917f82358c00ce9f94e0cdfe9bf912661b686a2a1ffc6dc204ccd11e3360ae658d3d910160405180910390a2505050565b6001600160a01b03918216600090815260076020908152604080832093909416825291909152205460ff1690565b6113726113f6565b6001600160a01b03811661139c57604051631e4fbdf760e01b8152600060048201526024016106c8565b6109aa816115f6565b60006105b382611a4f565b6000818152600460205260408120546001600160a01b0316806105b357604051637e27328960e01b8152600481018490526024016106c8565b6109c88383836001611a74565b6009546001600160a01b03163314610dd55760405163118cdaa760e01b81523360048201526024016106c8565b6000828152600460205260408120546001600160a01b039081169083161561145057611450818486611b7a565b6001600160a01b0381161561148e5761146d600085600080611a74565b6001600160a01b038116600090815260056020526040902080546000190190555b6001600160a01b038516156114bd576001600160a01b0385166000908152600560205260409020805460010190555b60008481526004602052604080822080546001600160a01b0319166001600160a01b0389811691821790925591518793918516917fddf252ad1be2c89b69c2b068fc378daa952ba7f163c4a11628f55a4df523b3ef91a4949350505050565b6002600a540361153f57604051633ee5aeb560e01b815260040160405180910390fd5b6002600a55565b6001600160a01b03821661157057604051633250574960e11b8152600060048201526024016106c8565b600061157e83836000611423565b90506001600160a01b0381166115aa57604051637e27328960e01b8152600481018390526024016106c8565b836001600160a01b0316816001600160a01b0316146107c7576040516364283d7b60e01b81526001600160a01b03808616600483015260248201849052821660448201526064016106c8565b600980546001600160a01b038381166001600160a01b0319831681179093556040519116919082907f8be0079c531659141344cd1fd0a4f28419497f9722a3daafe3b4186f6b6457e090600090a35050565b6001600160a01b03821661167a57604051630b61174360e31b81526001600160a01b03831660048201526024016106c8565b6001600160a01b03838116600081815260076020908152604080832094871680845294825291829020805460ff191686151590811790915591519182527f17307eab39ab6107e8899845ad3d59bd9653f200f220920489ca2b5937696c31910160405180910390a3505050565b6001600160a01b0383163b1561180b57604051630a85bd0160e11b81526001600160a01b0384169063150b7a0290611729908890889087908790600401612608565b6020604051808303816000875af1925050508015611764575060408051601f3d908101601f1916820190925261176191810190612645565b60015b6117cd573d808015611792576040519150601f19603f3d011682016040523d82523d6000602084013e611797565b606091505b5080516000036117c557604051633250574960e11b81526001600160a01b03851660048201526024016106c8565b805160208201fd5b6001600160e01b03198116630a85bd0160e11b1461180957604051633250574960e11b81526001600160a01b03851660048201526024016106c8565b505b5050505050565b606061181d826113b0565b506000828152600860205260408120805461183790612414565b80601f016020809104026020016040519081016040528092919081815260200182805461186390612414565b80156118b05780601f10611885576101008083540402835291602001916118b0565b820191906000526020600020905b81548152906001019060200180831161189357829003601f168201915b5050505050905060006118ce60408051602081019091526000815290565b905080516000036118e0575092915050565b8151156119125780826040516020016118fa929190612662565b60405160208183030381529060405292505050919050565b61191b84611bde565b949350505050565b61067f828260405180602001604052806000815250611c53565b6000828152600860205260409020611955828261250f565b506040518281527ff8e1a15aba9398e019f0b49df1a4fde98ee17ae345cb5f6b5e2c27f5033e8ce79060200160405180910390a15050565b6127106001600160601b0382168110156119d35760405163dfd1fc1b60e01b8152600481018590526001600160601b0383166024820152604481018290526064016106c8565b6001600160a01b038316611a0457604051634b4f842960e11b815260048101859052600060248201526044016106c8565b506040805180820182526001600160a01b0393841681526001600160601b0392831660208083019182526000968752600190529190942093519051909116600160a01b029116179055565b60006001600160e01b03198216632483248360e11b14806105b357506105b382611c6b565b8080611a8857506001600160a01b03821615155b15611b4a576000611a98846113b0565b90506001600160a01b03831615801590611ac45750826001600160a01b0316816001600160a01b031614155b8015611ad75750611ad5818461133c565b155b15611b005760405163a9fbf51f60e01b81526001600160a01b03841660048201526024016106c8565b8115611b485783856001600160a01b0316826001600160a01b03167f8c5be1e5ebec7d5bd14f71427d1e84f3dd0314c0f7b2291e5b200ac8c7c3b92560405160405180910390a45b505b5050600090815260066020526040902080546001600160a01b0319166001600160a01b0392909216919091179055565b611b85838383611cab565b6109c8576001600160a01b038316611bb357604051637e27328960e01b8152600481018290526024016106c8565b60405163177e802f60e01b81526001600160a01b0383166004820152602481018290526044016106c8565b6060611be9826113b0565b506000611c0160408051602081019091526000815290565b90506000815111611c215760405180602001604052806000815250611c4c565b80611c2b84611d0e565b604051602001611c3c929190612662565b6040516020818303038152906040525b9392505050565b611c5d8383611da1565b6109c83360008585856116e7565b60006001600160e01b031982166380ac58cd60e01b1480611c9c57506001600160e01b03198216635b5e139f60e01b145b806105b357506105b382611e06565b60006001600160a01b0383161580159061191b5750826001600160a01b0316846001600160a01b03161480611ce55750611ce5848461133c565b8061191b5750506000908152600660205260409020546001600160a01b03908116911614919050565b60606000611d1b83611e3b565b600101905060008167ffffffffffffffff811115611d3b57611d3b61217a565b6040519080825280601f01601f191660200182016040528015611d65576020820181803683370190505b5090508181016020015b600019016f181899199a1a9b1b9c1cb0b131b232b360811b600a86061a8153600a8504945084611d6f57509392505050565b6001600160a01b038216611dcb57604051633250574960e11b8152600060048201526024016106c8565b6000611dd983836000611423565b90506001600160a01b038116156109c8576040516339e3563760e11b8152600060048201526024016106c8565b60006001600160e01b0319821663152a902d60e11b14806105b357506301ffc9a760e01b6001600160e01b03198316146105b3565b60008072184f03e93ff9f4daa797ed6e38ed64bf6a1f0160401b8310611e7a5772184f03e93ff9f4daa797ed6e38ed64bf6a1f0160401b830492506040015b6d04ee2d6d415b85acef81000000008310611ea6576d04ee2d6d415b85acef8100000000830492506020015b662386f26fc100008310611ec457662386f26fc10000830492506010015b6305f5e1008310611edc576305f5e100830492506008015b6127108310611ef057612710830492506004015b60648310611f02576064830492506002015b600a83106105b35760010192915050565b6001600160e01b0319811681146109aa57600080fd5b600060208284031215611f3b57600080fd5b8135611c4c81611f13565b60005b83811015611f61578181015183820152602001611f49565b50506000910152565b60008151808452611f82816020860160208601611f46565b601f01601f19169290920160200192915050565b602081526000611c4c6020830184611f6a565b600060208284031215611fbb57600080fd5b5035919050565b80356001600160a01b0381168114611fd957600080fd5b919050565b60008060408385031215611ff157600080fd5b611ffa83611fc2565b946020939093013593505050565b60006020828403121561201a57600080fd5b611c4c82611fc2565b6020808252825182820181905260009190848201906040850190845b8181101561205b5783518352928401929184019160010161203f565b50909695505050505050565b60008060006060848603121561207c57600080fd5b61208584611fc2565b925061209360208501611fc2565b9150604084013590509250925092565b600080604083850312156120b657600080fd5b50508035926020909101359150565b80358015158114611fd957600080fd5b600080604083850312156120e857600080fd5b823591506120f8602084016120c5565b90509250929050565b60018060a01b038716815285602082015260c06040820152600061212860c0830187611f6a565b828103606084015261213a8187611f6a565b9415156080840152505060a00152949350505050565b6000806040838503121561216357600080fd5b61216c83611fc2565b91506120f8602084016120c5565b634e487b7160e01b600052604160045260246000fd5b600080600080608085870312156121a657600080fd5b6121af85611fc2565b93506121bd60208601611fc2565b925060408501359150606085013567ffffffffffffffff808211156121e157600080fd5b818701915087601f8301126121f557600080fd5b8135818111156122075761220761217a565b604051601f8201601f19908116603f0116810190838211818310171561222f5761222f61217a565b816040528281528a602084870101111561224857600080fd5b82602086016020830137600060208483010152809550505050505092959194509250565b6020815260018060a01b038251166020820152602082015160408201526000604083015160c060608401526122a460e0840182611f6a565b90506060840151601f198483030160808501526122c18282611f6a565b9150506080840151151560a084015260a084015160c08401528091505092915050565b60008083601f8401126122f657600080fd5b50813567ffffffffffffffff81111561230e57600080fd5b60208301915083602082850101111561084d57600080fd5b60008060008060008060008060a0898b03121561234257600080fd5b883567ffffffffffffffff8082111561235a57600080fd5b6123668c838d016122e4565b909a50985060208b013591508082111561237f57600080fd5b61238b8c838d016122e4565b909850965060408b0135955060608b013591506001600160601b03821682146123b357600080fd5b90935060808a013590808211156123c957600080fd5b506123d68b828c016122e4565b999c989b5096995094979396929594505050565b600080604083850312156123fd57600080fd5b61240683611fc2565b91506120f860208401611fc2565b600181811c9082168061242857607f821691505b60208210810361244857634e487b7160e01b600052602260045260246000fd5b50919050565b634e487b7160e01b600052601160045260246000fd5b80820281158282048414176105b3576105b361244e565b60008261249857634e487b7160e01b600052601260045260246000fd5b500490565b818103818111156105b3576105b361244e565b6000600182016124c2576124c261244e565b5060010190565b601f8211156109c857600081815260208120601f850160051c810160208610156124f05750805b601f850160051c820191505b81811015611809578281556001016124fc565b815167ffffffffffffffff8111156125295761252961217a565b61253d816125378454612414565b846124c9565b602080601f831160018114612572576000841561255a5750858301515b600019600386901b1c1916600185901b178555611809565b600085815260208120601f198616915b828110156125a157888601518255948401946001909101908401612582565b50858210156125bf5787850151600019600388901b60f8161c191681555b5050505050600190811b01905550565b604081528260408201528284606083013760006060848301015260006060601f19601f8601168301019050826020830152949350505050565b6001600160a01b038581168252841660208201526040810183905260806060820181905260009061263b90830184611f6a565b9695505050505050565b60006020828403121561265757600080fd5b8151611c4c81611f13565b60008351612674818460208801611f46565b835190830190612688818360208801611f46565b0194935050505056fea264697066735822122010417205a3fa0e40f3313e5ba7f56c21480f8fe48a21ba866aac087d9c53f1e264736f6c63430008140033",
  "linkReferences": {},
  "deployedLinkReferences": {}
}