{
  "_format": "hh-sol-artifact-1",
  "contractName": "BasedSkillsV2",
  "sourceName": "contracts/BasedSkillsV2.sol",
  "abi": [
    {
      "inputs": [],
      "stateMutability": "nonpayable",
      "type": "constructor"
    },
    {
      "inputs": [
        {
          "internalType": "uint256",
          "name": "numerator",
          "type": "uint256"
        },
        {
          "internalType": "uint256",
          "name": "denominator",
          "type": "uint256"
        }
      ],
      "name": "ERC2981InvalidDefaultRoyalty",
      "type": "error"
    },
    {
      "inputs": [
        {
          "internalType": "address",
          "name": "receiver",
          "type": "address"
        }
      ],
      "name": "ERC2981InvalidDefaultRoyaltyReceiver",
      "type": "error"
    },
    {
      "inputs": [
        {
          "internalType": "uint256",
          "name": "tokenId",
          "type": "uint256"
        },
        {
          "internalType": "uint256",
          "name": "numerator",
          "type": "uint256"
        },
        {
          "internalType": "uint256",
          "name": "denominator",
          "type": "uint256"
        }
      ],
      "name": "ERC2981InvalidTokenRoyalty",
      "type": "error"
    },
    {
      "inputs": [
        {
          "internalType": "uint256",
          "name": "tokenId",
          "type": "uint256"
        },
        {
          "internalType": "address",
          "name": "receiver",
          "type": "address"
        }
      ],
      "name": "ERC2981InvalidTokenRoyaltyReceiver",
      "type": "error"
    },
    {
      "inputs": [
        {
          "internalType": "address",
          "name": "sender",
          "type": "address"
        },
        {
          "internalType": "uint256",
          "name": "tokenId",
          "type": "uint256"
        },
        {
          "internalType": "address",
          "name": "owner",
          "type": "address"
        }
      ],
      "name": "ERC721IncorrectOwner",
      "type": "error"
    },
    {
      "inputs": [
        {
          "internalType": "address",
          "name": "operator",
          "type": "address"
        },
        {
          "internalType": "uint256",
          "name": "tokenId",
          "type": "uint256"
        }
      ],
      "name": "ERC721InsufficientApproval",
      "type": "error"
    },
    {
      "inputs": [
        {
          "internalType": "address",
          "name": "approver",
          "type": "address"
        }
      ],
      "name": "ERC721InvalidApprover",
      "type": "error"
    },
    {
      "inputs": [
        {
          "internalType": "address",
          "name": "operator",
          "type": "address"
        }
      ],
      "name": "ERC721InvalidOperator",
      "type": "error"
    },
    {
      "inputs": [
        {
          "internalType": "address",
          "name": "owner",
          "type": "address"
        }
      ],
      "name": "ERC721InvalidOwner",
      "type": "error"
    },
    {
      "inputs": [
        {
          "internalType": "address",
          "name": "receiver",
          "type": "address"
        }
      ],
      "name": "ERC721InvalidReceiver",
      "type": "error"
    },
    {
      "inputs": [
        {
          "internalType": "address",
          "name": "sender",
          "type": "address"
        }
      ],
      "name": "ERC721InvalidSender",
      "type": "error"
    },
    {
      "inputs": [
        {
          "internalType": "uint256",
          "name": "tokenId",
          "type": "uint256"
        }
      ],
      "name": "ERC721NonexistentToken",
      "type": "error"
    },
    {
      "inputs": [
        {
          "internalType": "address",
          "name": "owner",
          "type": "address"
        }
      ],
      "name": "OwnableInvalidOwner",
      "type": "error"
    },
    {
      "inputs": [
        {
          "internalType": "address",
          "name": "account",
          "type": "address"
        }
      ],
      "name": "OwnableUnauthorizedAccount",
      "type": "error"
    },
    {
      "inputs": [],
      "name": "ReentrancyGuardReentrantCall",
      "type": "error"
    },
    {
      "anonymous": false,
      "inputs": [
        {
          "indexed": true,
          "internalType": "address",
          "name": "owner",
          "type": "address"
        },
        {
          "indexed": true,
          "internalType": "address",
          "name": "approved",
          "type": "address"
        },
        {
          "indexed": true,
          "internalType": "uint256",
          "name": "tokenId",
          "type": "uint256"
        }
      ],
      "name": "Approval",
      "type": "event"
    },
    {
      "anonymous": false,
      "inputs": [
        {
          "indexed": true,
          "internalType": "address",
          "name": "owner",
          "type": "address"
        },
        {
          "indexed": true,
          "internalType": "address",
          "name": "operator",
          "type": "address"
        },
        {
          "indexed": false,
          "internalType": "bool",
          "name": "approved",
          "type": "bool"
        }
      ],
      "name": "ApprovalForAll",
      "type": "event"
    },
    {
      "anonymous": false,
      "inputs": [
        {
          "indexed": true,
          "internalType": "address",
          "name": "previousOwner",
          "type": "address"
        },
        {
          "indexed": true,
          "internalType": "address",
          "name": "newOwner",
          "type": "address"
        }
      ],
      "name": "OwnershipTransferred",
      "type": "event"
    },
    {
      "anonymous": false,
      "inputs": [
        {
          "indexed": true,
          "internalType": "uint256",
          "name": "tokenId",
          "type": "uint256"
        },
        {
          "indexed": true,
          "internalType": "address",
          "name": "creator",
          "type": "address"
        },
        {
          "indexed": false,
          "internalType": "string",
          "name": "name",
          "type": "string"
        },
        {
          "indexed": false,
          "internalType": "uint256",
          "name": "price",
          "type": "uint256"
        }
      ],
      "name": "SkillCreated",
      "type": "event"
    },
    {
      "anonymous": false,
      "inputs": [
        {
          "indexed": true,
          "internalType": "uint256",
          "name": "tokenId",
          "type": "uint256"
        },
        {
          "indexed": false,
          "internalType": "bool",
          "name": "isListed",
          "type": "bool"
        }
      ],
      "name": "SkillListingUpdated",
      "type": "event"
    },
    {
      "anonymous": false,
      "inputs": [
        {
          "indexed": true,
          "internalType": "uint256",
          "name": "tokenId",
          "type": "uint256"
        },
        {
          "indexed": false,
          "internalType": "uint256",
          "name": "oldPrice",
          "type": "uint256"
        },
        {
          "indexed": false,
          "internalType": "uint256",
          "name": "newPrice",
          "type": "uint256"
        }
      ],
      "name": "SkillPriceUpdated",
      "type": "event"
    },
    {
      "anonymous": false,
      "inputs": [
        {
          "indexed": true,
          "internalType": "uint256",
          "name": "tokenId",
          "type": "uint256"
        },
        {
          "indexed": true,
          "internalType": "address",
          "name": "buyer",
          "type": "address"
        },
        {
          "indexed": true,
          "internalType": "address",
          "name": "seller",
          "type": "address"
        },
        {
          "indexed": false,
          "internalType": "uint256",
          "name": "price",
          "type": "uint256"
        }
      ],
      "name": "SkillPurchased",
      "type": "event"
    },
    {
      "anonymous": false,
      "inputs": [
        {
          "indexed": true,
          "internalType": "address",
          "name": "from",
          "type": "address"
        },
        {
          "indexed": true,
          "internalType": "address",
          "name": "to",
          "type": "address"
        },
        {
          "indexed": true,
          "internalType": "uint256",
          "name": "tokenId",
          "type": "uint256"
        }
      ],
      "name": "Transfer",
      "type": "event"
    },
    {
      "inputs": [
        {
          "internalType": "address",
          "name": "to",
          "type": "address"
        },
        {
          "internalType": "uint256",
          "name": "tokenId",
          "type": "uint256"
        }
      ],
      "name": "approve",
      "outputs": [],
      "stateMutability": "nonpayable",
      "type": "function"
    },
    {
      "inputs": [
        {
          "internalType": "address",
          "name": "owner",
          "type": "address"
        }
      ],
      "name": "balanceOf",
      "outputs": [
        {
          "internalType": "uint256",
          "name": "",
          "type": "uint256"
        }
      ],
      "stateMutability": "view",
      "type": "function"
    },
    {
      "inputs": [
        {
          "internalType": "string",
          "name": "name",
          "type": "string"
        },
        {
          "internalType": "string",
          "name": "description",
          "type": "string"
        },
        {
          "internalType": "string",
          "name": "category",
          "type": "string"
        },
        {
          "internalType": "uint256",
          "name": "price",
          "type": "uint256"
        },
        {
          "internalType": "string",
          "name": "contentHash",
          "type": "string"
        },
        {
          "internalType": "uint96",
          "name": "royaltyBps",
          "type": "uint96"
        }
      ],
      "name": "createSkill",
      "outputs": [
        {
          "internalType": "uint256",
          "name": "",
          "type": "uint256"
        }
      ],
      "stateMutability": "nonpayable",
      "type": "function"
    },
    {
      "inputs": [
        {
          "internalType": "address",
          "name": "",
          "type": "address"
        },
        {
          "internalType": "uint256",
          "name": "",
          "type": "uint256"
        }
      ],
      "name": "creatorSkills",
      "outputs": [
        {
          "internalType": "uint256",
          "name": "",
          "type": "uint256"
        }
      ],
      "stateMutability": "view",
      "type": "function"
    },
    {
      "inputs": [
        {
          "internalType": "uint256",
          "name": "tokenId",
          "type": "uint256"
        }
      ],
      "name": "getApproved",
      "outputs": [
        {
          "internalType": "address",
          "name": "",
          "type": "address"
        }
      ],
      "stateMutability": "view",
      "type": "function"
    },
    {
      "inputs": [
        {
          "internalType": "uint256",
          "name": "tokenId",
          "type": "uint256"
        }
      ],
      "name": "getSkill",
      "outputs": [
        {
          "components": [
            {
              "internalType": "string",
              "name": "name",
              "type": "string"
            },
            {
              "internalType": "string",
              "name": "description",
              "type": "string"
            },
            {
              "internalType": "string",
              "name": "category",
              "type": "string"
            },
            {
              "internalType": "uint256",
              "name": "price",
              "type": "uint256"
            },
            {
              "internalType": "string",
              "name": "contentHash",
              "type": "string"
            },
            {
              "internalType": "bool",
              "name": "isListed",
              "type": "bool"
            },
            {
              "internalType": "uint256",
              "name": "totalSales",
              "type": "uint256"
            }
          ],
          "internalType": "struct BasedSkillsV2.Skill",
          "name": "",
          "type": "tuple"
        }
      ],
      "stateMutability": "view",
      "type": "function"
    },
    {
      "inputs": [
        {
          "internalType": "address",
          "name": "creator",
          "type": "address"
        }
      ],
      "name": "getSkillsByCreator",
      "outputs": [
        {
          "internalType": "uint256[]",
          "name": "",
          "type": "uint256[]"
        }
      ],
      "stateMutability": "view",
      "type": "function"
    },
    {
      "inputs": [
        {
          "internalType": "address",
          "name": "owner",
          "type": "address"
        },
        {
          "internalType": "address",
          "name": "operator",
          "type": "address"
        }
      ],
      "name": "isApprovedForAll",
      "outputs": [
        {
          "internalType": "bool",
          "name": "",
          "type": "bool"
        }
      ],
      "stateMutability": "view",
      "type": "function"
    },
    {
      "inputs": [],
      "name": "name",
      "outputs": [
        {
          "internalType": "string",
          "name": "",
          "type": "string"
        }
      ],
      "stateMutability": "view",
      "type": "function"
    },
    {
      "inputs": [],
      "name": "owner",
      "outputs": [
        {
          "internalType": "address",
          "name": "",
          "type": "address"
        }
      ],
      "stateMutability": "view",
      "type": "function"
    },
    {
      "inputs": [
        {
          "internalType": "uint256",
          "name": "tokenId",
          "type": "uint256"
        }
      ],
      "name": "ownerOf",
      "outputs": [
        {
          "internalType": "address",
          "name": "",
          "type": "address"
        }
      ],
      "stateMutability": "view",
      "type": "function"
    },
    {
      "inputs": [],
      "name": "platformFeeBps",
      "outputs": [
        {
          "internalType": "uint256",
          "name": "",
          "type": "uint256"
        }
      ],
      "stateMutability": "view",
      "type": "function"
    },
    {
      "inputs": [
        {
          "internalType": "uint256",
          "name": "tokenId",
          "type": "uint256"
        }
      ],
      "name": "purchaseSkill",
      "outputs": [],
      "stateMutability": "payable",
      "type": "function"
    },
    {
      "inputs": [],
      "name": "renounceOwnership",
      "outputs": [],
      "stateMutability": "nonpayable",
      "type": "function"
    },
    {
      "inputs": [
        {
          "internalType": "uint256",
          "name": "tokenId",
          "type": "uint256"
        },
        {
          "internalType": "uint256",
          "name": "salePrice",
          "type": "uint256"
        }
      ],
      "name": "royaltyInfo",
      "outputs": [
        {
          "internalType": "address",
          "name": "receiver",
          "type": "address"
        },
        {
          "internalType": "uint256",
          "name": "amount",
          "type": "uint256"
        }
      ],
      "stateMutability": "view",
      "type": "function"
    },
    {
      "inputs": [
        {
          "internalType": "address",
          "name": "from",
          "type": "address"
        },
        {
          "internalType": "address",
          "name": "to",
          "type": "address"
        },
        {
          "internalType": "uint256",
          "name": "tokenId",
          "type": "uint256"
        }
      ],
      "name": "safeTransferFrom",
      "outputs": [],
      "stateMutability": "nonpayable",
      "type": "function"
    },
    {
      "inputs": [
        {
          "internalType": "address",
          "name": "from",
          "type": "address"
        },
        {
          "internalType": "address",
          "name": "to",
          "type": "address"
        },
        {
          "internalType": "uint256",
          "name": "tokenId",
          "type": "uint256"
        },
        {
          "internalType": "bytes",
          "name": "data",
          "type": "bytes"
        }
      ],
      "name": "safeTransferFrom",
      "outputs": [],
      "stateMutability": "nonpayable",
      "type": "function"
    },
    {
      "inputs": [
        {
          "internalType": "address",
          "name": "operator",
          "type": "address"
        },
        {
          "internalType": "bool",
          "name": "approved",
          "type": "bool"
        }
      ],
      "name": "setApprovalForAll",
      "outputs": [],
      "stateMutability": "nonpayable",
      "type": "function"
    },
    {
      "inputs": [
        {
          "internalType": "uint256",
          "name": "newFeeBps",
          "type": "uint256"
        }
      ],
      "name": "setPlatformFee",
      "outputs": [],
      "stateMutability": "nonpayable",
      "type": "function"
    },
    {
      "inputs": [
        {
          "internalType": "uint256",
          "name": "tokenId",
          "type": "uint256"
        },
        {
          "internalType": "bool",
          "name": "isListed",
          "type": "bool"
        }
      ],
      "name": "setSkillListing",
      "outputs": [],
      "stateMutability": "nonpayable",
      "type": "function"
    },
    {
      "inputs": [
        {
          "internalType": "uint256",
          "name": "tokenId",
          "type": "uint256"
        },
        {
          "internalType": "uint256",
          "name": "newPrice",
          "type": "uint256"
        }
      ],
      "name": "setSkillPrice",
      "outputs": [],
      "stateMutability": "nonpayable",
      "type": "function"
    },
    {
      "inputs": [
        {
          "internalType": "uint256",
          "name": "",
          "type": "uint256"
        }
      ],
      "name": "skills",
      "outputs": [
        {
          "internalType": "string",
          "name": "name",
          "type": "string"
        },
        {
          "internalType": "string",
          "name": "description",
          "type": "string"
        },
        {
          "internalType": "string",
          "name": "category",
          "type": "string"
        },
        {
          "internalType": "uint256",
          "name": "price",
          "type": "uint256"
        },
        {
          "internalType": "string",
          "name": "contentHash",
          "type": "string"
        },
        {
          "internalType": "bool",
          "name": "isListed",
          "type": "bool"
        },
        {
          "internalType": "uint256",
          "name": "totalSales",
          "type": "uint256"
        }
      ],
      "stateMutability": "view",
      "type": "function"
    },
    {
      "inputs": [
        {
          "internalType": "bytes4",
          "name": "interfaceId",
          "type": "bytes4"
        }
      ],
      "name": "supportsInterface",
      "outputs": [
        {
          "internalType": "bool",
          "name": "",
          "type": "bool"
        }
      ],
      "stateMutability": "view",
      "type": "function"
    },
    {
      "inputs": [],
      "name": "symbol",
      "outputs": [
        {
          "internalType": "string",
          "name": "",
          "type": "string"
        }
      ],
      "stateMutability": "view",
      "type": "function"
    },
    {
      "inputs": [
        {
          "internalType": "uint256",
          "name": "tokenId",
          "type": "uint256"
        }
      ],
      "name": "tokenURI",
      "outputs": [
        {
          "internalType": "string",
          "name": "",
          "type": "string"
        }
      ],
      "stateMutability": "view",
      "type": "function"
    },
    {
      "inputs": [],
      "name": "totalSupply",
      "outputs": [
        {
          "internalType": "uint256",
          "name": "",
          "type": "uint256"
        }
      ],
      "stateMutability": "view",
      "type": "function"
    },
    {
      "inputs": [
        {
          "internalType": "address",
          "name": "from",
          "type": "address"
        },
        {
          "internalType": "address",
          "name": "to",
          "type": "address"
        },
        {
          "internalType": "uint256",
          "name": "tokenId",
          "type": "uint256"
        }
      ],
      "name": "transferFrom",
      "outputs": [],
      "stateMutability": "nonpayable",
      "type": "function"
    },
    {
      "inputs": [
        {
          "internalType": "address",
          "name": "newOwner",
          "type": "address"
        }
      ],
      "name": "transferOwnership",
      "outputs": [],
      "stateMutability": "nonpayable",
      "type": "function"
    },
    {
      "inputs": [],
      "name": "withdraw",
      "outputs": [],
      "stateMutability": "nonpayable",
      "type": "function"
    }
  ],
  "bytecode": "0x6080346200036d576001600160401b0390604090808201838111828210176200027f578252600c815260206b426173656420536b696c6c7360a01b81830152825193838501858110828211176200027f578452600585526414d2d2531360da1b8286015282518181116200027f57600254906001948583811c9316801562000362575b858410146200025e578190601f938481116200030b575b508590848311600114620002a15760009262000295575b5050600019600383901b1c191690851b176002555b85519182116200027f5760039283548581811c9116801562000274575b828210146200025e5782811162000213575b5080918311600114620001a8575081929394956000926200019c575b505060001982841b1c191690831b1790555b3315620001845760088054336001600160a01b0319821681179092559251926001600160a01b03167f8be0079c531659141344cd1fd0a4f28419497f9722a3daafe3b4186f6b6457e0600080a360095560fa600b55612ef49081620003738239f35b8151631e4fbdf760e01b815260006004820152602490fd5b01519050388062000110565b90601f198316968460005282600020926000905b898210620001fb5750508386979896959610620001e2575b505050811b01905562000122565b015160001983861b60f8161c19169055388080620001d4565b808885968294968601518155019501930190620001bc565b84600052816000208380860160051c82019284871062000254575b0160051c019086905b82811062000247575050620000f4565b6000815501869062000237565b925081926200022e565b634e487b7160e01b600052602260045260246000fd5b90607f1690620000e2565b634e487b7160e01b600052604160045260246000fd5b015190503880620000b0565b90879350601f198316916002600052876000209260005b89828210620002f45750508411620002da575b505050811b01600255620000c5565b015160001960f88460031b161c19169055388080620002cb565b8385015186558b97909501949384019301620002b8565b9091506002600052856000208480850160051c82019288861062000358575b918991869594930160051c01915b8281106200034857505062000099565b6000815585945089910162000338565b925081926200032a565b92607f169262000082565b600080fdfe608080604052600436101561001357600080fd5b60e0600035811c91826301ffc9a7146121d55750816306fdde031461212f578163081812fc146120f1578163095ea7b31461200a57816312e8e2c314611fac57816318160ddd14611f8e5781631865c17314611eda57816322dcd13e14611ebc57816323b872dd14611ea55781632a55205a14611e255781633c3896ad14611daa5781633ccfd60b14611d3457816342842e0e14611d0657816350d15fbe14611c44578163594f60eb146119ed5781636352211e146119bd57816370a0823114611964578163715018a6146119075781638da5cb5b146118de57816395d89b41146117fc578163a22cb46514611751578163a8d4de78146116f9578163b88d4fde1461168c578163bd880fae1461153c578163c0eba21f14610bd3578163c87b56dd146102b657508063e924229714610244578063e985e9c5146101ee5763f2fde38b1461016057600080fd5b346101e95760203660031901126101e9576101796122a2565b61018161250c565b6001600160a01b039081169081156101d057600854826001600160601b0360a01b821617600855167f8be0079c531659141344cd1fd0a4f28419497f9722a3daafe3b4186f6b6457e0600080a3005b604051631e4fbdf760e01b815260006004820152602490fd5b600080fd5b346101e95760403660031901126101e9576102076122a2565b61020f6122b8565b9060018060a01b03809116600052600760205260406000209116600052602052602060ff604060002054166040519015158152f35b346101e95760407f82358c00ce9f94e0cdfe9bf912661b686a2a1ffc6dc204ccd11e3360ae658d3d61027536612303565b610293610283839593612787565b6001600160a01b03163314612937565b83600052600c6020526003826000200190808254925582519182526020820152a2005b346101e957602090816003193601126101e95760043590816000526004835260018060a01b036040600020541615610b975781600052600c83526040600020916040519261030384612362565b61030c816123b9565b845261031a600182016123b9565b8486019081529161032d600283016123b9565b60408601908152600383015460608701908152909261034e600482016123b9565b6080880152600581015460ff16151560a08801526006015460c0870152805161037690612c5c565b9583519661038384612b08565b8251604080517f3c73766720786d6c6e733d22687474703a2f2f7777772e77332e6f72672f3230818e01527f30302f737667222076696577426f783d223020302034303020343030223e0000918101919091527f3c646566733e3c6c696e6561724772616469656e742069643d2267222078313d605e8201527f223025222079313d223025222078323d2231303025222079323d223130302522607e820152601f60f91b609e8201527f3c73746f70206f66667365743d22302522207374796c653d2273746f702d636f609f8201526d3637b91d1198309830983091179f60911b60bf8201527f3c73746f70206f66667365743d223130302522207374796c653d2273746f702d60cd8201527f636f6c6f723a23316131613161222f3e3c2f6c696e6561724772616469656e7460ed820152671f1e17b232b3399f60c11b61010d8201527f3c726563742077696474683d2234303022206865696768743d223430302220666101158201526e34b6361e913ab9361411b39491179f60891b6101358201527f3c7265637420783d2232302220793d223230222077696474683d2233363022206101448201527f6865696768743d22333630222066696c6c3d226e6f6e6522207374726f6b653d6101648201527f222333333322207374726f6b652d77696474683d2231222f3e000000000000006101848201527f3c7265637420783d2232302220793d223230222077696474683d22313230222061019d8201527f6865696768743d223234222066696c6c3d2223666630222f3e000000000000006101bd8201527f3c7465787420783d2238302220793d2233362220666f6e742d66616d696c793d6101d68201527f226d6f6e6f73706163652220666f6e742d73697a653d223130222066696c6c3d6101f68201527f22233030302220746578742d616e63686f723d226d6964646c652220666f6e746102168201526e16bbb2b4b3b43a1e913137b632111f60891b6102368201528a51909a8b94938d93909261024592610678908290858a0190880161225a565b661e17ba32bc3a1f60c91b9087019283018190527f3c7465787420783d223338302220793d2233362220666f6e742d66616d696c7961024c8401527f3d226d6f6e6f73706163652220666f6e742d73697a653d223130222066696c6c61026c8401527f3d22233434342220746578742d616e63686f723d22656e64223e23000000000061028c84015283516102a7949193849261071c908390888401908a0161225a565b01938401526102ae83017f3c7465787420783d223230302220793d223138302220666f6e742d66616d696c90526102ce83017f793d226d6f6e6f73706163652220666f6e742d73697a653d223234222066696c90526102ee83017f6c3d22236666662220746578742d616e63686f723d226d6964646c652220666f905270373a16bbb2b4b3b43a1e913137b632111f60791b928361030e8201528151918261031f968784019201916107cd9261225a565b01928301527f3c7465787420783d223230302220793d223332302220666f6e742d66616d696c6103268301527f793d226d6f6e6f73706163652220666f6e742d73697a653d223332222066696c6103468301527f6c3d22236666302220746578742d616e63686f723d226d6964646c652220666f610366830152610386820152815161039792909190610867908390858401908f0161225a565b6a1022aa241e17ba32bc3a1f60a91b9101918201527f3c7465787420783d223230302220793d223336352220666f6e742d66616d696c6103a28201527f793d226d6f6e6f73706163652220666f6e742d73697a653d223130222066696c6103c28201527f6c3d22233333332220746578742d616e63686f723d226d6964646c65223e42416103e28201527029a2a21029a5a4a626299e17ba32bc3a1f60791b610402820152651e17b9bb339f60d11b610413820152036103f981018852610932906104190188612398565b5193519561093e61296f565b61094791612a10565b9251905161095490612c5c565b9161095e90612b08565b92604051968795683d913730b6b2911d1160b91b8a880152805190818b60298a0192019161098b9261225a565b8601701116113232b9b1b934b83a34b7b7111d1160791b6029820152815191828b603a84019201916109bc9261225a565b01603a81017f222c22696d616765223a22646174613a696d6167652f7376672b786d6c3b62619052605a8101641cd94d8d0b60da1b9052815191828a605f8401920191610a089261225a565b01605f81017f222c2261747472696275746573223a5b7b2274726169745f74797065223a224390527130ba32b3b7b93c9116113b30b63ab2911d1160711b607f820152815191828960918401920191610a609261225a565b01609181017f227d2c7b2274726169745f74797065223a225072696365222c2276616c7565229052611d1160f11b60b1820152815191828860b38401920191610aa89261225a565b0160b381017f20455448227d2c7b2274726169745f74797065223a22546f6b656e204944222c905268113b30b63ab2911d1160b91b60d3820152815191828760dc8401920191610af79261225a565b0163227d5d7d60e01b60dc8201520360c08101835201610b179082612398565b610b1f61296f565b610b2891612a10565b9060405180928282017f646174613a6170706c69636174696f6e2f6a736f6e3b6261736536342c00000090528051908184603d8501920191610b699261225a565b810103601d81018352603d01610b7f9083612398565b6040519181839283528201610b939161227d565b0390f35b60405162461bcd60e51b8152600481018490526014602482015273151bdad95b88191bd95cc81b9bdd08195e1a5cdd60621b6044820152606490fd5b346101e95760c03660031901126101e9576004356001600160401b0381116101e957610c039036906004016124df565b6024356001600160401b0381116101e957610c229036906004016124df565b6044929192356001600160401b0381116101e957610c449036906004016124df565b93906084356001600160401b0381116101e957610c659036906004016124df565b909160a435906001600160601b03821682036101e957861561150757602087116114d2576103e86001600160601b0383161161149a57600a5497610ca889612928565b600a55604051610cb78161237d565b600081523315611481576001600160a01b03610cd38b336126cb565b1661146857333b611370575b50612710806001600160601b038516116113435750604051928360408101106001600160401b0360408601111761101157610da696846001600160601b03610d86936040610d9298016040523383521660208201528b600052600160205260406000209060018060a01b038151169060206001600160601b0360a01b91015160a01b1617905560405198610d728a612362565b610d7d368c8f6124a8565b8a5236916124a8565b602088015236916124a8565b6040850152606435606085015236916124a8565b6080820152600160a0820152600060c082015282600052600c60205260406000209080518051906001600160401b038211611011578190610de78554612328565b601f81116112f3575b50602090601f831160011461128d57600092611282575b50508160011b916000199060031b1c19161782555b60208101518051906001600160401b038211611011578190610e416001860154612328565b601f811161122f575b50602090601f83116001146111c2576000926111b7575b50508160011b916000199060031b1c19161760018301555b60408101518051906001600160401b038211611011578190610e9e6002860154612328565b601f8111611164575b50602090601f83116001146110f7576000926110ec575b50508160011b916000199060031b1c19161760028301555b6060810151600383015560808101518051906001600160401b03821161101157610f036004850154612328565b601f81116110a5575b50602090601f83116001146110325791806006949260c094600092611027575b50508160011b916000199060031b1c19161760048501555b610f6360a08201511515600586019060ff801983541691151516179055565b015191015533600052600d602052604060002080546801000000000000000081101561101157602094610fbe82869460017f9c1445e62d76df685a1c192561426f3d38174ceceb2013ae920f7d885ba29dab9501815561245f565b81549060031b9085821b91600019901b19161790558360405191604083528160408401526060830137600060608583010152606435868201526060813395601f80199101168101030190a3604051908152f35b634e487b7160e01b600052604160045260246000fd5b015190508980610f2c565b90601f198316916004860160005260206000209260005b81811061108d575092600192859260c0966006989610611074575b505050811b016004850155610f44565b015160001960f88460031b161c19169055898080611064565b92936020600181928786015181550195019301611049565b600485016000526020600020601f840160051c8101602085106110e5575b601f830160051c820181106110d9575050610f0c565b600081556001016110c3565b50806110c3565b015190508780610ebe565b600286016000908152602081209350601f198516905b81811061114c5750908460019594939210611133575b505050811b016002830155610ed6565b015160001960f88460031b161c19169055878080611123565b9293602060018192878601518155019501930161110d565b909150600285016000526020600020601f840160051c8101602085106111b0575b90849392915b601f830160051c820181106111a1575050610ea7565b6000815585945060010161118b565b5080611185565b015190508780610e61565b600186016000908152602081209350601f198516905b81811061121757509084600195949392106111fe575b505050811b016001830155610e79565b015160001960f88460031b161c191690558780806111ee565b929360206001819287860151815501950193016111d8565b909150600185016000526020600020601f840160051c81016020851061127b575b90849392915b601f830160051c8201811061126c575050610e4a565b60008155859450600101611256565b5080611250565b015190508780610e07565b6000868152602081209350601f198516905b8181106112db57509084600195949392106112c2575b505050811b018255610e1c565b015160001960f88460031b161c191690558780806112b5565b9293602060018192878601518155019501930161129f565b909150846000526020600020601f840160051c81016020851061133c575b90849392915b601f830160051c8201811061132d575050610df0565b60008155859450600101611317565b5080611311565b896064916001600160601b03866040519363dfd1fc1b60e01b855260048501521660248301526044820152fd5b60206113ac918b6040519384928392630a85bd0160e11b845233600485015260006024850152604484015260806064840152608483019061227d565b03816000335af160009181611423575b506113ee576113c96127c2565b805190816113e957604051633250574960e11b8152336004820152602490fd5b602001fd5b6001600160e01b03191663757a42ff60e11b0161140b578a610cdf565b604051633250574960e11b8152336004820152602490fd5b9091506020813d602011611460575b8161143f60209383612398565b810103126101e957516001600160e01b0319811681036101e957908c6113bc565b3d9150611432565b6040516339e3563760e11b815260006004820152602490fd5b604051633250574960e11b815260006004820152602490fd5b60405162461bcd60e51b815260206004820152601060248201526f0a4def2c2d8e8f240e8dede40d0d2ced60831b6044820152606490fd5b60405162461bcd60e51b815260206004820152600d60248201526c4e616d6520746f6f206c6f6e6760981b6044820152606490fd5b60405162461bcd60e51b815260206004820152600d60248201526c13985b59481c995c5d5a5c9959609a1b6044820152606490fd5b346101e9576020806003193601126101e9576040519061155b82612362565b60609182815282828201528260408201528281016000905282608082015260a081016000905260c00160009052600435600052600c815282604060002091604051936115a685612362565b6115af846123b9565b85526115bd600185016123b9565b858301908152906115d0600286016123b9565b604087019081526003860154828801908152916115ef600488016123b9565b9160808901928352600588015460ff169760a08a019815158952600601549560c08a019687526040519a8b9a828c5251918b01526101008a016116319161227d565b9451601f1995868b82030160408c015261164a9161227d565b905191858a830301908a015261165f9161227d565b9151608088015251918682030160a087015261167a9161227d565b9251151560c085015251908301520390f35b346101e95760803660031901126101e9576116a56122a2565b6116ad6122b8565b90604435606435926001600160401b0384116101e957366023850112156101e9576116e56116f79436906024816004013591016124a8565b926116f1838383612538565b336127f2565b005b346101e95760403660031901126101e9576117126122a2565b6001600160a01b03166000908152600d60205260409020805460243591908210156101e9576020916117439161245f565b90546040519160031b1c8152f35b346101e95760403660031901126101e95761176a6122a2565b611772612319565b6001600160a01b039091169081156117e3573360005260076020526040600020826000526020526117b38160406000209060ff801983541691151516179055565b60405190151581527f17307eab39ab6107e8899845ad3d59bd9653f200f220920489ca2b5937696c3160203392a3005b604051630b61174360e31b815260048101839052602490fd5b346101e95760003660031901126101e957604051600060035461181e81612328565b808452906001908181169081156118b7575060011461185c575b610b938461184881860382612398565b60405191829160208352602083019061227d565b6003600090815292507fc2575a0e9e593c00f959f8c92f12db2869c3395a3b0502d05e2516446f71f85b5b82841061189f57505050810160200161184882611838565b80546020858701810191909152909301928101611887565b60ff191660208087019190915292151560051b850190920192506118489150839050611838565b346101e95760003660031901126101e9576008546040516001600160a01b039091168152602090f35b346101e95760003660031901126101e95761192061250c565b600880546001600160a01b031981169091556000906001600160a01b03167f8be0079c531659141344cd1fd0a4f28419497f9722a3daafe3b4186f6b6457e08280a3005b346101e95760203660031901126101e9576001600160a01b036119856122a2565b1680156119a45760005260056020526020604060002054604051908152f35b6040516322718ad960e21b815260006004820152602490fd5b346101e95760203660031901126101e95760206119db600435612787565b6040516001600160a01b039091168152f35b6020806003193601126101e95760043590600260095414611c3257600260095581600052600c8152604060002090600582019182549260ff841615611c005760038201543410611bc457611a4085612787565b6001600160a01b038082169591929091338714611b8857612710611a66600b5434612915565b04340394348611611b7257600601611a7e8154612928565b905560ff19169055331561148157611a9686336126cb565b90811680611ab757604051637e27328960e01b815260048101889052602490fd5b948096949503611b415750600080809381935af1611ad36127c2565b5015611b0b577f79db7e5db94f1ea2d57db88fdaa815813e7361751bbe89bd62946afdb6f75b77604051923484523393a46001600955005b60405162461bcd60e51b815260048101839052600e60248201526d14185e5b595b9d0819985a5b195960921b6044820152606490fd5b6040516364283d7b60e01b81526001600160a01b039283166004820152602481019490945216604483015250606490fd5b634e487b7160e01b600052601160045260246000fd5b60405162461bcd60e51b815260048101879052601460248201527310d85b9b9bdd08189d5e481bdddb881cdada5b1b60621b6044820152606490fd5b60405162461bcd60e51b8152600481018490526014602482015273125b9cdd59999a58da595b9d081c185e5b595b9d60621b6044820152606490fd5b60405162461bcd60e51b815260048101849052600a602482015269139bdd081b1a5cdd195960b21b6044820152606490fd5b604051633ee5aeb560e01b8152600490fd5b346101e95760203660031901126101e957600435600052600c602052604060002090611c6f826123b9565b91611c7c600182016123b9565b611cf5611c8b600284016123b9565b600384015490611ce2611ca0600487016123b9565b91611cd4600660ff60058a01541698015496611cc66040519b8b8d9c8d528c019061227d565b908a820360208c015261227d565b9088820360408a015261227d565b916060870152858203608087015261227d565b91151560a084015260c08301520390f35b346101e9576116f7611d17366122ce565b9060405192611d258461237d565b600084526116f1838383612538565b346101e95760003660031901126101e957611d4d61250c565b600080808060018060a01b036008541647905af1611d696127c2565b5015611d7157005b60405162461bcd60e51b815260206004820152601160248201527015da5d1a191c985dd85b0819985a5b1959607a1b6044820152606490fd5b346101e95760403660031901126101e9576004357f4fd68db061aeb13429dae3b8fa5e05085f40db0b0a86204e40b872611861352b6020611de9612319565b611df561028385612787565b83600052600c8252611e1a8160056040600020019060ff801983541691151516179055565b6040519015158152a2005b346101e957611e3336612303565b600091825260016020526040909120546001600160a01b03808216929160a01c908315611e90575b50612710916001600160601b03611e73921690612915565b604080516001600160a01b03949094168452919004602083015290f35b600054908116935060a01c9050612710611e5b565b346101e9576116f7611eb6366122ce565b91612538565b346101e95760003660031901126101e9576020600b54604051908152f35b346101e9576020806003193601126101e9576001600160a01b03611efc6122a2565b16600052600d8152604060002060405190818382549182815201908192600052846000209060005b86828210611f7a578686611f3a82880383612398565b604051928392818401908285525180915260408401929160005b828110611f6357505050500390f35b835185528695509381019392810192600101611f54565b835485529093019260019283019201611f24565b346101e95760003660031901126101e9576020600a54604051908152f35b346101e95760203660031901126101e957600435611fc861250c565b6103e88111611fd657600b55005b60405162461bcd60e51b815260206004820152600c60248201526b08ccaca40e8dede40d0d2ced60a31b6044820152606490fd5b346101e95760403660031901126101e9576120236122a2565b60243561202f81612787565b331515806120de575b806120b1575b612099576001600160a01b039283169282918491167f8c5be1e5ebec7d5bd14f71427d1e84f3dd0314c0f7b2291e5b200ac8c7c3b925600080a4600090815260066020526040902080546001600160a01b0319169091179055005b60405163a9fbf51f60e01b8152336004820152602490fd5b5060018060a01b038116600052600760205260406000203360005260205260ff604060002054161561203e565b506001600160a01b038116331415612038565b346101e95760203660031901126101e95760043561210e81612787565b506000526006602052602060018060a01b0360406000205416604051908152f35b346101e95760003660031901126101e957604051600060025461215181612328565b808452906001908181169081156118b7575060011461217a57610b938461184881860382612398565b6002600090815292507f405787fa12a823e0f2b7631cc41b3ba8828b3321ca811111fa75cd3aa3bb5ace5b8284106121bd57505050810160200161184882611838565b805460208587018101919091529093019281016121a5565b346101e95760203660031901126101e9576004359063ffffffff60e01b82168092036101e9576020916380ac58cd60e01b8114908115612249575b811561221e575b5015158152f35b63152a902d60e11b811491508115612238575b5083612217565b6301ffc9a760e01b14905083612231565b635b5e139f60e01b81149150612210565b60005b83811061226d5750506000910152565b818101518382015260200161225d565b906020916122968151809281855285808601910161225a565b601f01601f1916010190565b600435906001600160a01b03821682036101e957565b602435906001600160a01b03821682036101e957565b60609060031901126101e9576001600160a01b039060043582811681036101e9579160243590811681036101e9579060443590565b60409060031901126101e9576004359060243590565b6024359081151582036101e957565b90600182811c92168015612358575b602083101461234257565b634e487b7160e01b600052602260045260246000fd5b91607f1691612337565b60e081019081106001600160401b0382111761101157604052565b602081019081106001600160401b0382111761101157604052565b90601f801991011681019081106001600160401b0382111761101157604052565b90604051918260008254926123cd84612328565b90818452600194858116908160001461243c57506001146123f9575b50506123f792500383612398565b565b9093915060005260209081600020936000915b8183106124245750506123f7935082010138806123e9565b8554888401850152948501948794509183019161240c565b9150506123f794506020925060ff191682840152151560051b82010138806123e9565b80548210156124775760005260206000200190600090565b634e487b7160e01b600052603260045260246000fd5b6001600160401b03811161101157601f01601f191660200190565b9291926124b48261248d565b916124c26040519384612398565b8294818452818301116101e9578281602093846000960137010152565b9181601f840112156101e9578235916001600160401b0383116101e957602083818601950101116101e957565b6008546001600160a01b0316330361252057565b60405163118cdaa760e01b8152336004820152602490fd5b906001600160a01b03908116801561148157600091848352846020926004845260409383858720541695869133151580612632575b509060047fddf252ad1be2c89b69c2b068fc378daa952ba7f163c4a11628f55a4df523b3ef92846125ff575b85835260058152888320805460010190558683525286812080546001600160a01b0319168517905580a4831682036125d15750505050565b516364283d7b60e01b81526001600160a01b0392831660048201526024810193909352166044820152606490fd5b600087815260066020526040902080546001600160a01b0319169055848352600581528883208054600019019055612599565b9193945091508061268a575b1561264e5787929186913861256d565b84888761266b576024915190637e27328960e01b82526004820152fd5b905163177e802f60e01b81523360048201526024810191909152604490fd5b5033861480156126af575b8061263e575087825260068152338486842054161461263e565b5085825260078152848220338352815260ff8583205416612695565b6000828152600460205260408120546001600160a01b03908116939284917fddf252ad1be2c89b69c2b068fc378daa952ba7f163c4a11628f55a4df523b3ef9183612752575b16928361273a575b84815260046020526040812080546001600160a01b0319168517905580a490565b83815260056020526040812060018154019055612719565b600086815260066020526040902080546001600160a01b03191690558385526005602052604085208054600019019055612711565b6000818152600460205260409020546001600160a01b03169081156127aa575090565b60249060405190637e27328960e01b82526004820152fd5b3d156127ed573d906127d38261248d565b916127e16040519384612398565b82523d6000602084013e565b606090565b9293823b612802575b5050505050565b6128469060018060a01b038094169560405194859481630a85bd0160e11b98898852166004870152166024850152604484015260806064840152608483019061227d565b03906020816000938185885af1908290826128c6575b5050612894578261286b6127c2565b805191908261288d57604051633250574960e11b815260048101839052602490fd5b6020915001fd5b6001600160e01b031916036128ae575038808080806127fb565b60249060405190633250574960e11b82526004820152fd5b909192506020813d821161290d575b816128e260209383612398565b810103126129095751906001600160e01b031982168203612906575090388061285c565b80fd5b5080fd5b3d91506128d5565b81810292918115918404141715611b7257565b6000198114611b725760010190565b1561293e57565b60405162461bcd60e51b81526020600482015260096024820152682737ba1037bbb732b960b91b6044820152606490fd5b60405190606082018281106001600160401b0382111761101157604052604082527f6768696a6b6c6d6e6f707172737475767778797a303132333435363738392b2f6040837f4142434445464748494a4b4c4d4e4f505152535455565758595a61626364656660208201520152565b906129e88261248d565b6129f56040519182612398565b8281528092612a06601f199161248d565b0190602036910137565b805115612af3578051600291828201809211611b72576003918290046001600160fe1b0381168103611b7257612a49908495941b6129de565b936020850193829183518401906020820192835194600085525b838110612aa2575050505052510680600114612a8f57600214612a84575090565b603d90600019015390565b50603d9081600019820153600119015390565b87600491999293949901918251600190603f9082828260121c16880101518453828282600c1c16880101518385015382828260061c1688010151888501531685010151898201530197929190612a63565b5050604051612b018161237d565b6000815290565b806000917a184f03e93ff9f4daa797ed6e38ed64bf6a1f01000000000000000080821015612c3d575b506d04ee2d6d415b85acef810000000080831015612c2e575b50662386f26fc1000080831015612c1f575b506305f5e10080831015612c10575b5061271080831015612c01575b506064821015612bf1575b600a80921015612be7575b600190816021612b9f8287016129de565b95860101905b612bb1575b5050505090565b600019019083906f181899199a1a9b1b9c1cb0b131b232b360811b8282061a835304918215612be257919082612ba5565b612baa565b9160010191612b8e565b9190606460029104910191612b83565b60049193920491019138612b78565b60089193920491019138612b6b565b60109193920491019138612b5c565b60209193920491019138612b4a565b604093508104915038612b31565b908151811015612477570160200190565b8015612e8d57670de0b6b3a764000080820491068015612e8357655af3107a40009004600a811015612de157612c9190612b08565b612cca602360405180936203030360ec1b6020830152612cba815180926020868601910161225a565b8101036003810184520182612398565b80515b6001811180612db2575b15612ceb578015611b725760001901612ccd565b91612cf58361248d565b92612d036040519485612398565b808452612d0f8161248d565b602085019390601f190136853760005b828110612d8157505050612d6f92612d7e92612d3c602193612b08565b916040519583612d5688955180926020808901910161225a565b840191601760f91b60208401525180938684019061225a565b01036001810184520182612398565b90565b612dad906001600160f81b0319612d988285612c4b565b511660001a612da78289612c4b565b53612928565b612d1f565b506000198101818111611b7257600360fc1b906001600160f81b031990612dd99085612c4b565b511614612cd7565b6064811015612e3057612df390612b08565b612e2b6022604051809361030360f41b6020830152612e1b815180926020868601910161225a565b8101036002810184520182612398565b612cca565b6103e8811015612e7a57612e4390612b08565b612e2b60216040518093600360fc1b6020830152612e6a815180926020868601910161225a565b8101036001810184520182612398565b612e2b90612b08565b50612d7e90612b08565b50604051604081018181106001600160401b038211176110115760405260048152634652454560e01b60208201529056fea2646970667358221220633ca722c1409339f3db68250661adaf83d7c15a41497593bce6a4b83e4bca1a64736f6c63430008140033",
  "linkReferences": {},
  "deployedLinkReferences": {}
}